:030000000204CB2C
:0C04CB00787FE4F6D8FD75816C02051204
:0E05D0000C0800000000000000000000000009
:10084200E4F593F594F591F592F595F596F5B1F5F4
:10085200B2F5B3F5B4F5C9F5CAF5CBF5CCF5E1F5CA
:02086200E22290
:10033800120842120864E4F5481200037FD07E07D1
:100348001207F280377F0A7E0012095D1200037FD0
:10035800F47E011207F2E548B4080050E890036CF7
:10036800F828287302038402038902038B0203908E
:1003780002039802039D0203D20203E31205578089
:10038800C480001201EB80BD12063F75480480B599
:1003980012040980B0C2CD7F3C7E001207F2D2CD94
:1003A8007F3C7E001207F2C2CD7F3C7E001207F22E
:1003B800D2CD7F3C7E001207F2C2CD7F3C7E001278
:1003C80007F2D2CD75480702034DC2CD7FB87E0B28
:1003D8001207F2D2CDE4F54802034D1208A4EF60EB
:1003E800FA1206ADBF0E037548011208A4EF60FAB1
:1003F8001206ADEF640F600302034D754804020353
:010408004DA6
:1007F200EF1FAA0670011E4A6021E4FCFDC3ED94BE
:1008020009EC940050EAE4FBFA0BBB00010AEB642A
:0B081200554A70F50DBD00010C80E29E
:01081D0022B8
:0A095D00EF1F70011E144E70F72208
:0F05DE00011900011A00011B0004157FBFDFEF98
:1006AD00751C64E4F51974152519F8E6F5F865F867
:1006BD00604E7F887E1312095D74152519F8E66565
:1006CD00F8603D85F81BE4F51AE51B20E023741551
:1006DD002519F8E6B5F8F77F107E2712095D741518
:1006ED002519F8E6B5F8E7E51A25E025E02519FF07
:1006FD0022E51BC313F51B051AE51AC3940440C963
:0B070D000519E519C39404409D7FFF0F
:0107180022BE
:1008A400E4F51974152519F8E6F5F865F860037F81
:0C08B40001220519E519B404EA7F0022B6
:1005ED0010492020202020202020202020202020E5
:1005FD0020201059202020202020202020202020C5
:04060D002020202069
:10091D0075F8FFC2A7C2A5D2A6D2A720FFF5C2A720
:01092D0022A7
:10092E0012091DC2A7C2A5C2A68FF8D2A7C2A722BE
:10093E0012091DC2A7D2A5C2A68FF8D2A7C2A7229E
:10088500AE07EEC39410EE50042480800224C0FF0E
:0F08950012092EEE2480FF12092EAF0502093E34
:1007BA008B1C8A1D891EAE07EEC39410EE500424CA
:1007CA0080800224B0FF12092EAB1CAA1DA91E129A
:1007DA0008D96013051EE51E7002051D14F91208DA
:0807EA00D9FF12093E80E22252
:100864007F0F7E001207F27F3812092E12092E1212
:10087400092E7F0612092E7F0C12092E7F01020910
:010884002E45
:100003001208647F0A7E0012095DE548B4080040C7
:10001300030201D590001EF828287302003602005F
:100023004D02007A0200AD0200E002012B0201D56D
:10003300020175754957754A65754B6C754C637547
:100043004D6F754E6D754F658075754950754A6C6A
:10005300754B65754C61754D73754E65754F2075A0
:10006300505375516575527475532075544E7555BB
:100073006575567702010A754950754A6C754B656B
:10008300754C61754D73754E65754F20755053757D
:10009300516575527475532075544175556775567E
:1000A3006175576975586E02015B75494F754A4B07
:1000B300754B21754C20754D20754E20754F20755D
:1000C3005020755120755220755320755420755555
:1000D300207556207557207558200201D575495053
:1000E300754A6C754B65754C61754D73754E6575C9
:1000F3004F2075504975516E75527075537575540F
:1001030074755520755620755720755820755950AC
:10011300755A61755B73755C73755D77755E6F7525
:100123005F727560640201BD754953754A55754B1D
:1001330043754C43754D20754E20754F20755020E7
:1001430075512075522075532075542075552075AF
:100153005620755720755820755920755A20755BA0
:1001630020755C20755D20755E20755F20756020AD
:100173008048754953754A65754B74754C20754DA8
:100183004E754E65754F7775502075515075526198
:1001930075537375547375557775566F75577275B7
:1001A300586475593F755A3F755B20755C20755DC2
:1001B30020755E20755F2075602075612075622053
:1001C30075632075642075652075662075672075D5
:1001D30068207B007A007949E4FF1207BA7B007A32
:0801E3000079597F100207BAF0
:1008F200D2EDD2EC7F057E0012095DC2ED7F057E4E
:070902000012095DC2EC22A6
:10090900C2EDD2EC7F057E0012095DD2ED7F057E36
:040919000002095D72
:02076A008F1DE1
:10076C00751F32E4F51EE51D25E0F51D92EDD2EC6A
:10077C007F057E0012095DC2EC051EE51EC39408C0
:10078C0040E4D2ED7F057E0012095DD2EC30ED0C19
:10079C00AF1E151EEF6005751F3280F17F027E00C3
:0E07AC0012095DC2ECC2ED7F057E0002095D00
:10071900E4F51CF51DF51DD2ED7F017E0012095D82
:10072900D2ECE51C25E0F51C30ED06A2EDE43342E0
:100739001C7F017E0012095DC2EC7F017E00120957
:100749005D051DE51DC3940840CD300004D2ED8040
:1007590002C2EDD2EC7F057E0012095DC2ECAF1C2E
:01076900226D
:1008C0008F698D6A1208F27FA012076AAF6912075A
:0908D0006AAF6A12076A02090905
:02081E008F6BDE
:100820001208F27FA012076AAF6B12076A1208F271
:100830007FA112076AC2001207198F6C120909AF53
:010840006C4B
:010841002294
:0F094E008F1C1208F27FA012076AAF1C02076A03
:100611000E3A000000000000000000000000000091
:10062100182200000000000000000000000000008F
:0D063100000000000000000000000121009A
:100557007F0212094E1208F27FA112076AC2001227
:100567000719753A008F3BC200120719753C008FB7
:100577003DC200120719753E008F3FC200120719CE
:100587007540008F41C2001207197542008F43C2A0
:10059700001207197544008F45D2001207197546D6
:1005A700008F47120909E53BAE3A7803C333CE33D0
:1005B700CED8F92406FFE43EFEEFB54708EEB54670
:0905C70004754804227548012264
:10063F0085223A85233B85243C85253D85263E85AD
:10064F00273F852840852941852A42852B43852CC4
:10065F0044852D45E523AE227803C333CE33CED860
:10066F00F92406F547E43EF5467F0212094EAF3BEB
:10067F0012076AAF3D12076AAF3F12076AAF411206
:10068F00076AAF4312076AAF4512076AAF471207EF
:0E069F006A1209097F0A7E0012095D7F01229E
:1001EB00E5486401706A1208A4EF60FA1206ADEFDD
:1001FB003395E0F5228F231208A4EF60FA1206ADB7
:10020B00EF3395E0F5248F251208A4EF60FA120660
:10021B00ADEF3395E0F5268F271208A4EF60FA12A5
:10022B0006ADEF3395E0F5288F291208A4EF60FA9D
:10023B001206ADEF3395E0F52A8F2B1208A4EF6071
:10024B00FA1206ADEF3395E0F52C8F2D754802228F
:10025B00E548640260030203371208A4EF60FA1248
:10026B0006ADEF3395E0F52E8F2F1208A4EF60FA51
:10027B001206ADEF3395E0F5308F311208A4EF6025
:10028B00FA1206ADEF3395E0F5328F331208A4EF77
:10029B0060FA1206ADEF3395E0F5348F351208A4F2
:1002AB00EF60FA1206ADEF3395E0F5368F37120893
:1002BB00A4EF60FA1206ADEF3395E0F5388F39E510
:1002CB0023652F7004E522652E705EE52565317080
:1002DB0004E52465307052E52765337004E5266527
:1002EB00327046E52965357004E5286534703AE5CA
:1002FB002B65377004E52A6536702EE52DB5392947
:10030B00E52CB5382475480312063FC2CD7F507ECD
:10031B00001207F2D2CD7F507E001207F2C2CD7FC2
:0D032B00507E001207F2D2CD22754801224B
:100409001208A4EF60FA1206ADEF3395E0F5228FDA
:10041900231208A4EF60FA1206ADEF3395E0F52434
:100429008F251208A4EF60FA1206ADEF3395E0F5B7
:10043900268F271208A4EF60FA1206ADEF3395E074
:10044900F5288F291208A4EF60FA1206ADEF33954B
:10045900E0F52A8F2B1208A4EF60FA1206ADEF33EC
:1004690095E0F52C8F2DE523B53B3FE522B53A3ACA
:10047900E525B53D35E524B53C30E527B53F2BE508
:1004890026B53E26E529B54121E528B5401CE52BD1
:10049900B54317E52AB54212E52DB5450DE52CB54D
:1004A9004408754805E4F52180057548040521E5EA
:1004B90021C394054006754806E4F5218521C07FCE
:0204C90000220F
:1004D700020338E493A3F8E493A34003F68001F200
:1004E70008DFF48029E493A3F85407240CC8C33326
:1004F700C4540F4420C8834004F456800146F6DFF5
:10050700E4800B01020408102040809005D0E47EAF
:10051700019360BCA3FF543F30E509541FFEE493E9
:10052700A360010ECF54C025E060A840B8E493A3B0
:10053700FAE493A3F8E493A3C8C582C8CAC583CADB
:10054700F0A3C8C582C8CAC583CADFE9DEE780BE93
:01063E0000BB
:1008D900BB010689828A83E0225002E722BBFE021D
:0908E900E32289828A83E4932250
:00000001FF
